:100000000C942A000C943F000C943F000C943F0089
:100010000C943F000C943F000C943F000C943F0064
:100020000C943F000C943F000C943F000C943F0054
:100030000C943F000C943F000C943F000C943F0044
:100040000C943F000C943F000C943F000C943F0034
:100050000C943F0011241FBECFE5D8E0DEBFCDBF1A
:1000600010E0A0E6B0E0E0E5F7E202C005900D92F6
:10007000A836B107D9F70E949B050C94A6130C94DF
:100080000000EF92FF920F931F937B018C0120E001
:1000900030E040E05FE40E94410388238CF0C80117
:1000A000B70120E030E040E05FE40E94B9010E9427
:1000B000A1039B01AC01205030404040504806C095
:1000C000C801B7010E94A1039B01AC01B901CA019B
:1000D0001F910F91FF90EF900895A0E0B0E0E3E74B
:1000E000F0E00C946F13DC012B01FA019C9192302B
:1000F00008F439C1EB018881823008F433C19430AF
:1001000069F4843009F02FC111969C91119789816F
:10011000981709F428C1A0E6B0E025C1843009F49D
:1001200021C18230A9F4923009F01DC19A01AD01BC
:1001300088E0EA010990AE01E90109929E0181502F
:10014000C1F7E201898111969C918923818308C1BD
:10015000923009F407C112962D903C901397EB0151
:100160008A819B811496AD90BD90CD90DC901797BD
:10017000EC80FD800E811F819101281B390BB90194
:1001800037FF04C066277727621B730B6032710547
:100190000CF061C0121613066CF537014801062EEB
:1001A00004C096948794779467940A94D2F721E0D8
:1001B00030E040E050E004C0220F331F441F551FC1
:1001C0006A95D2F721503040404050402E213F21C7
:1001D00040235123211531054105510521F021E02E
:1001E00030E040E050E079018A01E628F72808294C
:1001F00019293CC0232BD1F1260E371E35014601AB
:10020000062E04C096948794779467940A94D2F744
:1002100021E030E040E050E004C0220F331F441FD3
:10022000551F6A95D2F721503040404050402A2156
:100230003B214C215D21211531054105510521F05E
:1002400021E030E040E050E059016A01A628B728DB
:10025000C828D9280BC0821593052CF01C01AA24AC
:10026000BB24650103C0EE24FF24870111969C91F5
:10027000D20111968C91981709F445C0992339F051
:10028000A80197012A193B094C095D0906C0A6017E
:1002900095012E193F09400B510B57FD08C01182E3
:1002A0003382228224833583468357831DC081E0B5
:1002B00081833382228288279927DC01821B930B5A
:1002C000A40BB50B84839583A683B7830DC0220F3F
:1002D000331F441F551F24833583468357838281F0
:1002E000938101979383828324813581468157814D
:1002F000DA01C9010197A109B1098F5F9F4FAF4F83
:10030000BF4328F30BC0918333822282EA0CFB1C8B
:100310000C1D1D1DE482F5820683178383E0808314
:10032000248135814681578157FF1AC0C901AA2708
:1003300097FDA095BA2F81709070A070B0705695FF
:10034000479537952795822B932BA42BB52B848328
:100350009583A683B7838281938101969383828359
:10036000DF0101C0D201CD01CDB7DEB7E2E10C94CF
:100370008B13A0E2B0E0EFEBF1E00C947B13698308
:100380007A838B839C832D833E834F835887E9E058
:10039000EE2EF12CEC0EFD1ECE010196B7010E944F
:1003A000CA048E010F5E1F4FCE010596B8010E9450
:1003B000CA048A8991E089278A8BC701B801AE01F6
:1003C000475E5F4F0E946D000E94F503A096E6E035
:1003D0000C949713A0E2B0E0E0EFF1E00C947B13F3
:1003E00069837A838B839C832D833E834F835887D5
:1003F000F9E0EF2EF12CEC0EFD1ECE010196B701B7
:100400000E94CA048E010F5E1F4FCE010596B801EF
:100410000E94CA04C701B801AE01475E5F4F0E9447
:100420006D000E94F503A096E6E00C949713A0E2FD
:10043000B0E0EDE1F2E00C946F1369837A838B8373
:100440009C832D833E834F835887CE010196BE0146
:10045000675F7F4F0E94CA04CE010596BE016F5EA2
:100460007F4F0E94CA049985923088F08989823032
:10047000C8F0943019F4823051F404C0843029F467
:10048000923081F480E690E0C6C0923049F420E0DA
:100490009A858A89981321E02A87CE010996BBC0E4
:1004A000823049F420E09A858A89981321E02A8BCA
:1004B000CE014196B0C02D843E844F8458886D880B
:1004C0007E888F88988CEE24FF248701AA24BB2481
:1004D000650140E050E060E070E0E0E0F0E0C10184
:1004E00081709070892BE9F0E60CF71C081D191D2E
:1004F0009A01AB012A0D3B1D4C1D5D1D80E090E073
:10050000A0E0B0E0E614F7040805190520F481E046
:1005100090E0A0E0B0E0BA01A901480F591F6A1F9E
:100520007B1FAA0CBB1CCC1CDD1C97FE08C081E005
:1005300090E0A0E0B0E0A82AB92ACA2ADB2A3196C6
:10054000E032F10549F0660C771C881C991C569422
:10055000479437942794C3CFFA85EA892B893C893D
:100560008B859C85280F391F2E5F3F4F17C0CA010E
:1005700081709070892B61F016950795F794E79438
:1005800080E090E0A0E0B0E8E82AF92A0A2B1B2BD3
:1005900076956795579547952F5F3F4F77FDE7CF46
:1005A0000CC0440F551F661F771F17FD4160EE0CEE
:1005B000FF1C001F111F21503040403090E05907B0
:1005C00090E0690790E4790760F32B8F3C8FDB01A3
:1005D000CA018F779070A070B07080349105A1052A
:1005E000B10561F447FD0AC0E114F10401051105EC
:1005F00029F0405C5F4F6F4F7F4F40781A8EFE1797
:1006000011F081E08A8F4D8F5E8F6F8F78A383E02A
:10061000898FCE0149960E94F503A096E2E10C94E1
:100620008B13A8E1B0E0E7E1F3E00C947B1369835E
:100630007A838B839C832D833E834F83588789E005
:10064000E82EF12CEC0EFD1ECE010196B7010E94A2
:10065000CA048E010F5E1F4FCE010596B8010E949D
:10066000CA048985823040F08989823028F0C70128
:10067000B8010E94420501C08FEF6896E6E00C9435
:100680009713A8E1B0E0E7E4F3E00C947B136983EF
:100690007A838B839C832D833E834F83588789E0A5
:1006A000E82EF12CEC0EFD1ECE010196B7010E9442
:1006B000CA048E010F5E1F4FCE010596B8010E943D
:1006C000CA048985823040F08989823028F0C701C8
:1006D000B8010E94420501C08FEF6896E6E00C94D5
:1006E0009713A8E1B0E0E7E7F3E00C947B1369838C
:1006F0007A838B839C832D833E834F83588789E045
:10070000E82EF12CEC0EFD1ECE010196B7010E94E1
:10071000CA048E010F5E1F4FCE010596B8010E94DC
:10072000CA048985823040F08989823028F0C70167
:10073000B8010E94420501C081E06896E6E00C9491
:100740009713ACE0B0E0E7EAF3E00C947F13698321
:100750007A838B839C83CE010196BE016B5F7F4FB2
:100760000E94CA048D81823061F1823050F1843060
:1007700021F48E81882351F12EC02F81388537FDD9
:1007800020C06E812F3131051CF06623F9F023C0A3
:100790008EE190E0821B930B29853A854B855C8521
:1007A00004C056954795379527958A95D2F76623C5
:1007B000B1F050954095309521953F4F4F4F5F4F89
:1007C0000EC020E030E040E050E009C02FEF3FEFE6
:1007D0004FEF5FE704C020E030E040E050E8B901AF
:1007E000CA012C96E2E00C949B13DF92EF92FF92E9
:1007F0000F931F93FC01E480F58006811781D1805F
:100800008081823048F480E090E0A0E1B0E0E82A06
:10081000F92A0A2B1B2BA5C0843009F49FC0823013
:1008200021F4EE24FF24870105C0E114F104010541
:10083000110519F4E0E0F0E096C0628173819FEF4A
:10084000623879070CF05BC022E83FEF261B370BBC
:100850002A3131052CF020E030E040E050E02AC0A1
:10086000B801A701022E04C0769567955795479564
:100870000A94D2F781E090E0A0E0B0E004C0880FD5
:10088000991FAA1FBB1F2A95D2F70197A109B10989
:100890008E219F21A023B1230097A105B10521F04E
:1008A00081E090E0A0E0B0E09A01AB01282B392B69
:1008B0004A2B5B2BDA01C9018F779070A070B07062
:1008C00080349105A105B10539F427FF09C0205CEA
:1008D0003F4F4F4F5F4F04C0215C3F4F4F4F5F4F23
:1008E000E0E0F0E02030A0E03A07A0E04A07A0E412
:1008F0005A0710F0E1E0F0E079018A0127C0603882
:10090000710564F5FB01E158FF4FD801C7018F77EE
:100910009070A070B07080349105A105B10539F4D4
:10092000E7FE0DC080E490E0A0E0B0E004C08FE3FB
:1009300090E0A0E0B0E0E80EF91E0A1F1B1F17FFB1
:1009400005C016950795F794E794319687E01695BC
:100950000795F794E7948A95D1F705C0EE24FF2414
:100960008701EFEFF0E06E2F679566276795902F70
:100970009F77D794DD24D7948E2F8695492F462BC9
:10098000582F5D29B701CA011F910F91FF90EF9079
:10099000DF900895FC01DB01408151812281622FAB
:1009A0006F7770E0221F2227221F9381892F880FE3
:1009B000822B282F30E0991F9927991F11969C931D
:1009C000119721153105A9F54115510561057105ED
:1009D00011F482E037C082E89FEF13969C938E93C8
:1009E00012979A01AB0167E0220F331F441F551F76
:1009F0006A95D1F783E08C930DC0220F331F441FFB
:100A0000551F12968D919C911397019713969C9365
:100A10008E931297203080E0380780E0480780E40A
:100A2000580758F314962D933D934D935C93179765
:100A300008952F3F310579F4411551056105710580
:100A400019F484E08C93089564FF03C081E08C93D3
:100A500012C01C9210C02F57304013963C932E9317
:100A6000129783E08C9387E0440F551F661F771F12
:100A70008A95D1F7706414964D935D936D937C9332
:100A8000179708951F93DC01FB019C91923008F4A5
:100A900047C08081823008F443C0943051F41196ED
:100AA0001C91843099F58181682F70E0611B710978
:100AB0003FC0843021F0923031F48230B9F181812D
:100AC000882389F12DC011961C9111978230F1F085
:100AD00081811817D9F412962D913C911397828138
:100AE00093818217930794F028173907BCF0149666
:100AF0008D919D910D90BC91A02D248135814681D1
:100B00005781281739074A075B0718F4112341F06A
:100B10000AC082179307A407B50740F4112319F000
:100B200061E070E005C06FEF7FEF02C060E070E051
:100B3000CB011F9108950F931F93DF93CF93CDB7F0
:100B4000DEB7CE50D1400FB6F894DEBF0FBECDBF9A
:100B5000EAE3F0E01082EBE3F0E083E08083E7E398
:100B6000F0E08FEF8083E8E3F0E01082E9E3F0E06B
:100B70008081823011F00C94850DE6E3F0E08081F5
:100B8000282F30E0C35FDE4F39832883CD50D1401A
:100B9000C35FDE4F88819981CD50D1408F3491055C
:100BA00009F45CC3C35FDE4FE881F981CD50D140C9
:100BB000E035F10594F5C35FDE4F28813981CD50D2
:100BC000D1402630310509F4D7C1C35FDE4F88819B
:100BD0009981CD50D1408730910554F4C35FDE4FE9
:100BE000E881F981CD50D140309709F453C0BECF90
:100BF000C35FDE4F28813981CD50D1402730310588
:100C000009F410C6C35FDE4F88819981CD50D14071
:100C10008F33910509F4F7C0A9CFC35FDE4FE88198
:100C2000F981CD50D140ED36F10509F489C4C35F97
:100C3000DE4F28813981CD50D1402E363105ACF4BC
:100C4000C35FDE4F88819981CD50D1408B359105AE
:100C500009F44BC2C35FDE4FE881F981CD50D1402A
:100C6000E636F10509F4B3C381CFC35FDE4F2881B7
:100C70003981CD50D1402D37310509F41AC5C35FF4
:100C8000DE4F88819981CD50D1408F37910509F48D
:100C900082C66CCFE8E3F0E08FE38083FE01E95F7A
:100CA000FE4F80E090E0AAEFB3E480839183A283BB
:100CB000B3838E010D5F1E4FFE01E95FFE4F608121
:100CC00071818281938120E030E04AE753E40E9401
:100CD0001702DC01CB01F80180839183A283B383E7
:100CE000FE01ED5FFE4F608171818281938120E082
:100CF00030E040E85FE30E947103882344F4FE0182
:100D0000EF5FFE4F81E090E09183808364C0FE013D
:100D1000ED5FFE4F608171818281938120E03FEF22
:100D20004FE757E40E94110318160CF043C0FE0170
:100D3000E95FFE4F608171818281938120E030E024
:100D400040E251E40E941702DC01CB018E010F5FEB
:100D50001E4FBC01CD010E944100DC01CB01F80116
:100D6000918380831FC0FE01E150FF4F89E190E035
:100D700091838083FE01E150FF4F80819181019733
:100D8000F1F7FE01E150FF4F91838083DE01AF5FF9
:100D9000BE4FFE01EF5FFE4F80819181019711965A
:100DA0009C938E93FE01EF5FFE4F808191810097AF
:100DB000D1F6DCCE8E010F5F1E4FFE01ED5FFE4FC0
:100DC00060817181828193810E944100DC01CB01AD
:100DD000F80191838083DE01A350BF4FFE01EF5FD6
:100DE000FE4F8081918111969C938E93FE01E3507A
:100DF000FF4F808191810197F1F7FE01E350FF4F92
:100E000091838083B3CEE8E3F0E086E08083FE0147
:100E1000E750FF4F80E090E0AAEFB3E48083918336
:100E2000A283B3838E010B501F4FFE01E750FF4F8B
:100E3000608171818281938120E030E04AE753E450
:100E40000E941702DC01CB01F80180839183A28309
:100E5000B383FE01EB50FF4F6081718182819381EA
:100E600020E030E040E85FE30E947103882344F40F
:100E7000FE01ED50FF4F81E090E09183808364C0DC
:100E8000FE01EB50FF4F608171818281938120E0F0
:100E90003FEF4FE757E40E94110318160CF043C0D0
:100EA000FE01E750FF4F608171818281938120E0D4
:100EB00030E040E251E40E941702DC01CB018E01D8
:100EC0000D501F4FBC01CD010E944100DC01CB0140
:100ED000F801918380831FC0FE01EF50FF4F89E12D
:100EE00090E091838083FE01EF50FF4F80819181DC
:100EF0000197F1F7FE01EF50FF4F91838083DE01F0
:100F0000AD50BF4FFE01ED50FF4F808191810197A1
:100F100011969C938E93FE01ED50FF4F808191813D
:100F20000097D1F623CE8E010D501F4FFE01EB50DE
:100F3000FF4F60817181828193810E944100DC01B9
:100F4000CB01F80191838083DE01A151BF4FFE01E7
:100F5000ED50FF4F8081918111969C938E93FE01FD
:100F6000E151FF4F808191810197F1F7FE01E1513D
:100F7000FF4F91838083FACDE8E3F0E08BE5808337
:100F8000FE01E551FF4F80E090E0AAEFB3E48083DB
:100F90009183A283B3838E0109511F4FFE01E55156
:100FA000FF4F608171818281938120E030E04AE7C8
:100FB00053E40E941702DC01CB01F8018083918386
:100FC000A283B383FE01E951FF4F60817181828169
:100FD000938120E030E040E85FE30E9471038823C2
:100FE00044F4FE01EB51FF4F81E090E09183808358
:100FF00064C0FE01E951FF4F60817181828193815C
:1010000020E03FEF4FE757E40E94110318160CF061
:1010100043C0FE01E551FF4F608171818281938160
:1010200020E030E040E251E40E941702DC01CB01F5
:101030008E010B511F4FBC01CD010E944100DC010C
:10104000CB01F801918380831FC0FE01ED51FF4F5A
:1010500089E190E091838083FE01ED51FF4F808113
:1010600091810197F1F7FE01ED51FF4F918380834C
:10107000DE01AB51BF4FFE01EB51FF4F80819181EB
:10108000019711969C938E93FE01EB51FF4F808147
:1010900091810097D1F66ACD8E010B511F4FFE0151
:1010A000E951FF4F60817181828193810E944100EB
:1010B000DC01CB01F80191838083DE01AF51BF4F8A
:1010C000FE01EB51FF4F8081918111969C938E938D
:1010D000FE01EF51FF4F808191810197F1F7FE01F1
:1010E000EF51FF4F9183808341CDE8E3F0E08FE43F
:1010F0008083FE01E352FF4F80E090E0AAEFB3E46B
:1011000080839183A283B3838E0107521F4FFE0118
:10111000E352FF4F608171818281938120E030E052
:101120004AE753E40E941702DC01CB01F8018083F7
:101130009183A283B383FE01E752FF4F60817181E7
:101140008281938120E030E040E85FE30E947103F8
:10115000882344F4FE01E952FF4F81E090E091833F
:10116000808364C0FE01E752FF4F608171818281FC
:10117000938120E03FEF4FE757E40E9411031816D8
:101180000CF043C0FE01E352FF4F60817181828108
:10119000938120E030E040E251E40E941702DC013C
:1011A000CB018E0109521F4FBC01CD010E944100AD
:1011B000DC01CB01F801918380831FC0FE01EB525B
:1011C000FF4F89E190E091838083FE01EB52FF4F56
:1011D000808191810197F1F7FE01EB52FF4F9183DE
:1011E0008083DE01A952BF4FFE01E952FF4F80818B
:1011F0009181019711969C938E93FE01E952FF4FC6
:10120000808191810097D1F6B1CC8E0109521F4F98
:10121000FE01E752FF4F60817181828193810E94BC
:101220004100DC01CB01F80191838083DE01AD52E6
:10123000BF4FFE01E952FF4F8081918111969C932F
:101240008E93FE01ED52FF4F808191810197F1F75E
:10125000FE01ED52FF4F9183808388CCE8E3F0E0FC
:1012600086E68083FE01E153FF4F80E090E0AAEF25
:10127000B3E480839183A283B3838E0105531F4F10
:10128000FE01E153FF4F608171818281938120E0F3
:1012900030E04AE753E40E941702DC01CB01F80179
:1012A00080839183A283B383FE01E553FF4F608166
:1012B00071818281938120E030E040E85FE30E9409
:1012C0007103882344F4FE01E753FF4F81E090E06F
:1012D0009183808364C0FE01E553FF4F608171817B
:1012E0008281938120E03FEF4FE757E40E94110392
:1012F00018160CF043C0FE01E153FF4F608171816D
:101300008281938120E030E040E251E40E941702A4
:10131000DC01CB018E0107531F4FBC01CD010E94A0
:101320004100DC01CB01F801918380831FC0FE01E5
:10133000E953FF4F89E190E091838083FE01E953F7
:10134000FF4F808191810197F1F7FE01E953FF4F33
:1013500091838083DE01A753BF4FFE01E753FF4F08
:1013600080819181019711969C938E93FE01E753A2
:10137000FF4F808191810097D1F6F8CB8E01075302
:101380001F4FFE01E553FF4F608171818281938180
:101390000E944100DC01CB01F80191838083DE01D2
:1013A000AB53BF4FFE01E753FF4F808191811196F0
:1013B0009C938E93FE01EB53FF4F808191810197A7
:1013C000F1F7FE01EB53FF4F91838083CFCBE8E32E
:1013D000F0E08DE68083FE01EF53FF4F80E090E068
:1013E000AAEFB3E480839183A283B3838E01035475
:1013F0001F4FFE01EF53FF4F608171818281938106
:1014000020E030E04AE753E40E941702DC01CB0100
:10141000F80180839183A283B383FE01E354FF4FDD
:10142000608171818281938120E030E040E85FE358
:101430000E947103882344F4FE01E554FF4F81E0CC
:1014400090E09183808364C0FE01E354FF4F60818C
:1014500071818281938120E03FEF4FE757E40E9442
:10146000110318160CF043C0FE01EF53FF4F6081CB
:1014700071818281938120E030E040E251E40E945A
:101480001702DC01CB018E0105541F4FBC01CD01B9
:101490000E944100DC01CB01F801918380831FC0D1
:1014A000FE01E754FF4F89E190E091838083FE01C4
:1014B000E754FF4F808191810197F1F7FE01E754D6
:1014C000FF4F91838083DE01A554BF4FFE01E55499
:1014D000FF4F80819181019711969C938E93FE011D
:1014E000E554FF4F808191810097D1F63FCB8E016B
:1014F00005541F4FFE01E354FF4F608171818281CB
:1015000093810E944100DC01CB01F801918380832B
:10151000DE01A954BF4FFE01E554FF4F8081918148
:1015200011969C938E93FE01E954FF4F8081918127
:101530000197F1F7FE01E954FF4F9183808316CBA9
:10154000E8E3F0E08DE78083FE01ED54FF4F80E09B
:1015500090E0AAEFB3E480839183A283B3838E01EA
:1015600001551F4FFE01ED54FF4F60817181828153
:10157000938120E030E04AE753E40E941702DC0147
:10158000CB01F80180839183A283B383FE01E155EF
:10159000FF4F608171818281938120E030E040E8DB
:1015A0005FE30E947103882344F4FE01E355FF4F7B
:1015B00081E090E09183808364C0FE01E155FF4F9C
:1015C000608171818281938120E03FEF4FE757E492
:1015D0000E94110318160CF043C0FE01ED54FF4F9A
:1015E000608171818281938120E030E040E251E4AA
:1015F0000E941702DC01CB018E0103551F4FBC0175
:10160000CD010E944100DC01CB01F8019183808370
:101610001FC0FE01E555FF4F89E190E09183808373
:10162000FE01E555FF4F808191810197F1F7FE01A1
:10163000E555FF4F91838083DE01A355BF4FFE0127
:10164000E355FF4F80819181019711969C938E9372
:10165000FE01E355FF4F808191810097D1F686CA44
:101660008E0103551F4FFE01E155FF4F60817181CF
:10167000828193810E944100DC01CB01F8019183BA
:101680008083DE01A755BF4FFE01E355FF4F8081E8
:10169000918111969C938E93FE01E755FF4F8081B7
:1016A00091810197F1F7FE01E755FF4F9183808308
:1016B0005DCAE8E3F0E087E08083FE01EB55FF4F71
:1016C00080E090E0AAEFB3E480839183A283B383A8
:1016D0008E010F551F4FFE01EB55FF4F6081718149
:1016E0008281938120E030E04AE753E40E941702B0
:1016F000DC01CB01F80180839183A283B383FE01D7
:10170000EF55FF4F608171818281938120E030E04D
:1017100040E85FE30E947103882344F4FE01E15630
:10172000FF4F81E090E09183808364C0FE01EF551C
:10173000FF4F608171818281938120E03FEF4FE70D
:1017400057E40E94110318160CF043C0FE01EB553C
:10175000FF4F608171818281938120E030E040E21F
:1017600051E40E941702DC01CB018E0101561F4F8C
:10177000BC01CD010E944100DC01CB01F801918345
:1017800080831FC0FE01E356FF4F89E190E0918303
:101790008083FE01E356FF4F808191810197F1F72D
:1017A000FE01E356FF4F91838083DE01A156BF4FB8
:1017B000FE01E156FF4F80819181019711969C9324
:1017C0008E93FE01E156FF4F808191810097D1F603
:1017D000CDC98E0101561F4FFE01EF55FF4F6081AD
:1017E0007181828193810E944100DC01CB01F8016B
:1017F00091838083DE01A556BF4FFE01E156FF4F66
:101800008081918111969C938E93FE01E556FF4F46
:10181000808191810197F1F7FE01E556FF4F918399
:101820008083A4C9E8E3F0E08FE78083FE01E956F6
:10183000FF4F80E090E0AAEFB3E480839183A2831E
:10184000B3838E010D561F4FFE01E956FF4F608195
:1018500071818281938120E030E04AE753E40E9465
:101860001702DC01CB01F80180839183A283B3834B
:10187000FE01ED56FF4F608171818281938120E0EE
:1018800030E040E85FE30E947103882344F4FE01E6
:10189000EF56FF4F81E090E09183808364C0FE01AA
:1018A000ED56FF4F608171818281938120E03FEF8F
:1018B0004FE757E40E94110318160CF043C0FE01D5
:1018C000E956FF4F608171818281938120E030E091
:1018D00040E251E40E941702DC01CB018E010F5659
:1018E0001F4FBC01CD010E944100DC01CB01F8017A
:1018F000918380831FC0FE01E157FF4F89E190E093
:1019000091838083FE01E157FF4F80819181019790
:10191000F1F7FE01E157FF4F91838083DE01AF565F
:10192000BF4FFE01EF56FF4F8081918101971196C5
:101930009C938E93FE01EF56FF4F8081918100971B
:10194000D1F614C98E010F561F4FFE01ED56FF4F01
:1019500060817181828193810E944100DC01CB0111
:10196000F80191838083DE01A357BF4FFE01EF563C
:10197000FF4F8081918111969C938E93FE01E357D6
:10198000FF4F808191810197F1F7FE01E357FF4FEF
:1019900091838083EBC8E8E3F0E08FE68083FE016B
:1019A000E757FF4F80E090E0AAEFB3E48083918394
:1019B000A283B3838E010B571F4FFE01E757FF4FE2
:1019C000608171818281938120E030E04AE753E4B5
:1019D0000E941702DC01CB01F80180839183A2836E
:1019E000B383FE01EB57FF4F608171818281938148
:1019F00020E030E040E85FE30E947103882344F474
:101A0000FE01ED57FF4F81E090E09183808364C039
:101A1000FE01EB57FF4F608171818281938120E04D
:101A20003FEF4FE757E40E94110318160CF043C034
:101A3000FE01E757FF4F608171818281938120E031
:101A400030E040E251E40E941702DC01CB018E013C
:101A50000D571F4FBC01CD010E944100DC01CB019D
:101A6000F801918380831FC0FE01EF57FF4F89E18A
:101A700090E091838083FE01EF57FF4F8081918139
:101A80000197F1F7FE01EF57FF4F91838083DE014D
:101A9000AD57BF4FFE01ED57FF4F808191810197F8
:101AA00011969C938E93FE01ED57FF4F808191819B
:101AB0000097D1F65BC88E010D571F4FFE01EB5703
:101AC000FF4F60817181828193810E944100DC011E
:101AD000CB01F80191838083DE01A158BF4FFE0145
:101AE000ED57FF4F8081918111969C938E93FE015B
:101AF000E158FF4F808191810197F1F7FE01E15894
:101B0000FF4F918380830C94B605E9E3F0E0808178
:101B1000813011F00C94B605E6E3F0E08081282FC7
:101B200030E0C55FDE4F39832883CB50D140C55F9D
:101B3000DE4F88819981CB50D1408636910509F4DA
:101B4000EAC3C55FDE4FE881F981CB50D140E7366B
:101B5000F105ACF5C55FDE4F28813981CB50D1400E
:101B60002730310509F4D5C1C55FDE4F88819981E1
:101B7000CB50D1408830910564F4C55FDE4FE881D9
:101B8000F981CB50D140E630F10509F42FC50C9412
:101B9000B605C55FDE4F28813981CB50D1402F3447
:101BA000310509F431C4C55FDE4F88819981CB507E
:101BB000D1408B35910509F4A0C40C94B605C55FDE
:101BC000DE4FE881F981CB50D140EF36F10559F174
:101BD000C55FDE4F28813981CB50D1402037310598
:101BE00064F4C55FDE4F88819981CB50D1408D363A
:101BF000910509F404C30C94B605C55FDE4FE88176
:101C0000F981CB50D140ED37F10509F43DC2C55FF4
:101C1000DE4F28813981CB50D1402F37310509F46F
:101C2000BDC00C94B605E8E3F0E08FE78083FE01C9
:101C3000E558FF4F80E090E0AAEFB3E48083918302
:101C4000A283B3838E0109581F4FFE01E558FF4F51
:101C5000608171818281938120E030E04AE753E422
:101C60000E941702DC01CB01F80180839183A283DB
:101C7000B383FE01E958FF4F6081718182819381B6
:101C800020E030E040E85FE30E947103882344F4E1
:101C9000FE01EB58FF4F81E090E09183808365C0A7
:101CA000FE01E958FF4F608171818281938120E0BC
:101CB0003FEF4FE757E40E94110318160CF044C0A1
:101CC000FE01E558FF4F608171818281938120E0A0
:101CD00030E040E251E40E941702DC01CB018E01AA
:101CE0000B581F4FBC01CD010E944100DC01CB010C
:101CF000F801918380831FC0FE01ED58FF4F89E1F9
:101D000090E091838083FE01ED58FF4F80819181A7
:101D10000197F1F7FE01ED58FF4F91838083DE01BB
:101D2000AB58BF4FFE01EB58FF4F80819181019767
:101D300011969C938E93FE01EB58FF4F8081918109
:101D40000097D1F60C94B6058E010B581F4FFE017B
:101D5000E958FF4F60817181828193810E94410027
:101D6000DC01CB01F80191838083DE01AF58BF4FC6
:101D7000FE01EB58FF4F8081918111969C938E93C9
:101D8000FE01EF58FF4F808191810197F1F7FE012D
:101D9000EF58FF4F918380830C94B605E8E3F0E0A1
:101DA00087E08083FE01E359FF4F80E090E0AAEFD7
:101DB000B3E480839183A283B3838E0107591F4FBD
:101DC000FE01E359FF4F608171818281938120E0A0
:101DD00030E04AE753E40E941702DC01CB01F8012E
:101DE00080839183A283B383FE01E759FF4F608113
:101DF00071818281938120E030E040E85FE30E94BE
:101E00007103882344F4FE01E959FF4F81E090E01B
:101E10009183808365C0FE01E759FF4F6081718126
:101E20008281938120E03FEF4FE757E40E94110346
:101E300018160CF044C0FE01E359FF4F6081718118
:101E40008281938120E030E040E251E40E94170259
:101E5000DC01CB018E0109591F4FBC01CD010E944D
:101E60004100DC01CB01F801918380831FC0FE019A
:101E7000EB59FF4F89E190E091838083FE01EB599C
:101E8000FF4F808191810197F1F7FE01EB59FF4FE0
:101E900091838083DE01A959BF4FFE01E959FF4FAD
:101EA00080819181019711969C938E93FE01E9594F
:101EB000FF4F808191810097D1F60C94B6058E0179
:101EC00009591F4FFE01E759FF4F608171818281DF
:101ED00093810E944100DC01CB01F8019183808352
:101EE000DE01AD59BF4FFE01E959FF4F808191815D
:101EF00011969C938E93FE01ED59FF4F8081918145
:101F00000197F1F7FE01ED59FF4F918380830C9407
:101F1000B605E8E3F0E08DE78083FE01E15AFF4F6C
:101F200080E090E0AAEFB3E480839183A283B3833F
:101F30008E01055A1F4FFE01E15AFF4F60817181EA
:101F40008281938120E030E04AE753E40E94170247
:101F5000DC01CB01F80180839183A283B383FE016E
:101F6000E55AFF4F608171818281938120E030E0EA
:101F700040E85FE30E947103882344F4FE01E75ABE
:101F8000FF4F81E090E09183808365C0FE01E55AB8
:101F9000FF4F608171818281938120E03FEF4FE7A5
:101FA00057E40E94110318160CF044C0FE01E15AD8
:101FB000FF4F608171818281938120E030E040E2B7
:101FC00051E40E941702DC01CB018E01075A1F4F1A
:101FD000BC01CD010E944100DC01CB01F8019183DD
:101FE00080831FC0FE01E95AFF4F89E190E0918391
:101FF0008083FE01E95AFF4F808191810197F1F7BB
:10200000FE01E95AFF4F91838083DE01A75ABF4F3B
:10201000FE01E75AFF4F80819181019711969C93B1
:102020008E93FE01E75AFF4F808191810097D1F690
:102030000C94B6058E01075A1F4FFE01E55AFF4F5B
:1020400060817181828193810E944100DC01CB011A
:10205000F80191838083DE01AB5ABF4FFE01E75A3E
:10206000FF4F8081918111969C938E93FE01EB5AD4
:10207000FF4F808191810197F1F7FE01EB5AFF4FED
:10208000918380830C94B605E8E3F0E08DE68083CD
:10209000FE01EF5AFF4F80E090E0AAEFB3E48083A7
:1020A0009183A283B3838E01035B1F4FFE01EF5A1E
:1020B000FF4F608171818281938120E030E04AE7A7
:1020C00053E40E941702DC01CB01F8018083918365
:1020D000A283B383FE01E35BFF4F60817181828144
:1020E000938120E030E040E85FE30E9471038823A1
:1020F00044F4FE01E55BFF4F81E090E09183808333
:1021000065C0FE01E35BFF4F608171818281938135
:1021100020E03FEF4FE757E40E94110318160CF040
:1021200044C0FE01EF5AFF4F60817181828193812B
:1021300020E030E040E251E40E941702DC01CB01D4
:102140008E01055B1F4FBC01CD010E944100DC01E7
:10215000CB01F801918380831FC0FE01E75BFF4F35
:1021600089E190E091838083FE01E75BFF4F8081EE
:1021700091810197F1F7FE01E75BFF4F9183808327
:10218000DE01A55BBF4FFE01E55BFF4F80819181C2
:10219000019711969C938E93FE01E55BFF4F808122
:1021A00091810097D1F60C94B6058E01055B1F4F07
:1021B000FE01E35BFF4F60817181828193810E9408
:1021C0004100DC01CB01F80191838083DE01A95B32
:1021D000BF4FFE01E55BFF4F8081918111969C937B
:1021E0008E93FE01E95BFF4F808191810197F1F7AA
:1021F000FE01E95BFF4F918380830C94B605E8E311
:10220000F0E086E68083FE01ED5BFF4F80E090E02A
:10221000AAEFB3E480839183A283B3838E01015C30
:102220001F4FFE01ED5BFF4F6081718182819381C1
:1022300020E030E04AE753E40E941702DC01CB01C2
:10224000F80180839183A283B383FE01FF966081AE
:1022500071818281938120E030E040E85FE30E9459
:10226000710388232CF481E090E09EAF8DAF47C0CE
:10227000FE01FF96608171818281938120E03FEFB2
:102280004FE757E40E94110318166CF5FE01ED5B51
:10229000FF4F608171818281938120E030E040E2D4
:1022A00051E40E941702DC01CB01BC01CD010E9468
:1022B0004100DC01CB019EAF8DAF0FC089E190E002
:1022C0009CAF8BAF8BAD9CAD0197F1F79CAF8BAF03
:1022D0008DAD9EAD01979EAF8DAF8DAD9EAD00973C
:1022E00069F70C94B605FE01FF96608171818281C9
:1022F00093810E944100DC01CB019EAF8DAF8DAD7B
:102300009EAD9AAF89AF89AD9AAD0197F1F79AAFBB
:1023100089AF0C94B605E8E3F0E08FE4808380E0B9
:1023200090E0AAEFB3E48DAB9EABAFABB8AF6DA9B5
:102330007EA98FA998AD20E030E04AE753E40E94DF
:102340001702DC01CB0189AB9AABABABBCAB69A983
:102350007AA98BA99CA920E030E040E85FE30E94C5
:10236000710388232CF481E090E098AB8FA740C0E4
:1023700069A97AA98BA99CA920E03FEF4FE757E410
:102380000E941103181654F56DA97EA98FA998AD66
:1023900020E030E040E251E40E941702DC01CB0172
:1023A000BC01CD010E944100DC01CB0198AB8FA79D
:1023B0000FC089E190E09EA78DA78DA59EA50197EE
:1023C000F1F79EA78DA78FA598A9019798AB8FA726
:1023D0008FA598A9009769F70C94B60569A97AA901
:1023E0008BA99CA90E944100DC01CB0198AB8FA76F
:1023F0008FA598A99CA78BA78BA59CA50197F1F702
:102400009CA78BA70C94B605E8E3F0E08BE58083EE
:1024100080E090E0AAEFB3E48FA398A7A9A7BAA79A
:102420006FA178A589A59AA520E030E04AE753E49A
:102430000E941702DC01CB018BA39CA3ADA3BEA31A
:102440006BA17CA18DA19EA120E030E040E85FE37C
:102450000E94710388232CF481E090E09AA389A361
:1024600040C06BA17CA18DA19EA120E03FEF4FE772
:1024700057E40E941103181654F56FA178A589A599
:102480009AA520E030E040E251E40E941702DC010E
:10249000CB01BC01CD010E944100DC01CB019AA31C
:1024A00089A30FC089E190E098A38F8F8F8D98A1A9
:1024B0000197F1F798A38F8F89A19AA101979AA309
:1024C00089A389A19AA1009769F70C94B6056BA11D
:1024D0007CA18DA19EA10E944100DC01CB019AA3A9
:1024E00089A389A19AA19E8F8D8F8D8D9E8D019735
:1024F000F1F79E8F8D8F0C94B605E8E3F0E086E04F
:10250000808380E090E0AAEFB3E4898F9A8FAB8F4D
:10251000BC8F698D7A8D8B8D9C8D20E030E04AE7F1
:1025200053E40E941702DC01CB018D8B9E8BAF8B95
:10253000B88F6D897E898F89988D20E030E040E8E2
:102540005FE30E94710388232CF481E090E09C8B70
:102550008B8B40C06D897E898F89988D20E03FEFFD
:102560004FE757E40E941103181654F5698D7A8DD0
:102570008B8D9C8D20E030E040E251E40E941702F8
:10258000DC01CB01BC01CD010E944100DC01CB018B
:102590009C8B8B8B0FC089E190E09A8B898B89890A
:1025A0009A890197F1F79A8B898B8B899C8901977E
:1025B0009C8B8B8B8B899C89009769F70C94B60553
:1025C0006D897E898F89988D0E944100DC01CB0145
:1025D0009C8B8B8B8B899C89988B8F878F85988917
:1025E0000197F1F7988B8F870C94B605E8E3F0E03C
:1025F0008FE3808380E090E0AAEFB3E48B879C8731
:10260000AD87BE876B857C858D859E8520E030E01B
:102610004AE753E40E941702DC01CB018F839887BD
:10262000A987BA876F81788589859A8520E030E00F
:1026300040E85FE30E94710388232CF481E090E07E
:102640009E838D8340C06F81788589859A8520E03F
:102650003FEF4FE757E40E941103181654F56B85BE
:102660007C858D859E8520E030E040E251E40E942B
:102670001702DC01CB01BC01CD010E944100DC014D
:10268000CB019E838D830FC089E190E09C838B8377
:102690008B819C810197F1F79C838B838D819E8137
:1026A00001979E838D838D819E81009769F70C949D
:1026B000B6056F81788589859A850E944100DC0185
:1026C000CB019E838D838D819E819A8389838981AD
:1026D0009A810197F1F79A8389830C94B6052F921A
:1026E0003F924F925F926F927F928F929F92AF92A2
:1026F000BF92CF92DF92EF92FF920F931F93CF93EF
:10270000DF93CDB7DEB7CA1BDB0B0FB6F894DEBF85
:102710000FBECDBF09942A88398848885F846E84AB
:102720007D848C849B84AA84B984C884DF80EE80F5
:10273000FD800C811B81AA81B981CE0FD11D0FB6FE
:10274000F894DEBF0FBECDBFED010895F894FFCF22
:08275000000000000000000081
:00000001FF
