:100000000C942A000C9434000C9434000C943400AA
:100010000C9434000C9434000C9434000C94340090
:100020000C9434000C9434000C9434000C94340080
:100030000C9434000C9434000C9434000C94340070
:100040000C9434000C9434000C9434000C94340060
:100050000C94340011241FBECFE5D8E0DEBFCDBF25
:100060000E9436000C946A000C940000DF93CF933A
:10007000CDB7DEB7E7E3F0E01082E8E3F0E087E039
:100080008083EAE3F0E083E08083EBE3F0E010823A
:10009000E6E3F0E08081863029F4EBE3F0E081E0F4
:1000A0008083F6CFE6E3F0E08081853029F4EBE34E
:1000B000F0E082E08083ECCFE6E3F0E08081833003
:1000C00029F4EBE3F0E083E08083E2CFEBE3F0E0C0
:0800D0001082DECFF894FFCF8F
:00000001FF
